{"abi":[{"type":"constructor","inputs":[],"stateMutability":"nonpayable"},{"type":"function","name":"approve","inputs":[{"name":"to","type":"address","internalType":"address"},{"name":"tokenId","type":"uint256","internalType":"uint256"}],"outputs":[],"stateMutability":"nonpayable"},{"type":"function","name":"balanceOf","inputs":[{"name":"owner","type":"address","internalType":"address"}],"outputs":[{"name":"","type":"uint256","internalType":"uint256"}],"stateMutability":"view"},{"type":"function","name":"buyNft","inputs":[{"name":"tokenId","type":"uint256","internalType":"uint256"}],"outputs":[],"stateMutability":"payable"},{"type":"function","name":"convertToTokenUri","inputs":[{"name":"_name","type":"string","internalType":"string"},{"name":"_description","type":"string","internalType":"string"},{"name":"_imageURI","type":"string","internalType":"string"},{"name":"_ipfsHash","type":"string","internalType":"string"},{"name":"_rent","type":"uint256","internalType":"uint256"},{"name":"_genre","type":"string","internalType":"string"}],"outputs":[{"name":"","type":"string","internalType":"string"}],"stateMutability":"nonpayable"},{"type":"function","name":"delistNFT","inputs":[{"name":"tokenId","type":"uint256","internalType":"uint256"}],"outputs":[],"stateMutability":"nonpayable"},{"type":"function","name":"flipMood","inputs":[{"name":"tokenId","type":"uint256","internalType":"uint256"}],"outputs":[],"stateMutability":"nonpayable"},{"type":"function","name":"getApproved","inputs":[{"name":"tokenId","type":"uint256","internalType":"uint256"}],"outputs":[{"name":"","type":"address","internalType":"address"}],"stateMutability":"view"},{"type":"function","name":"getCurrentTokenUri","inputs":[{"name":"tokenId","type":"uint256","internalType":"uint256"}],"outputs":[{"name":"","type":"string","internalType":"string"}],"stateMutability":"view"},{"type":"function","name":"getRentByIpfsHash","inputs":[{"name":"ipfsHash","type":"string","internalType":"string"}],"outputs":[{"name":"","type":"uint256","internalType":"uint256"}],"stateMutability":"view"},{"type":"function","name":"getRentByTokenId","inputs":[{"name":"tokenId","type":"uint256","internalType":"uint256"}],"outputs":[{"name":"","type":"uint256","internalType":"uint256"}],"stateMutability":"view"},{"type":"function","name":"getTokenCounter","inputs":[],"outputs":[{"name":"","type":"uint256","internalType":"uint256"}],"stateMutability":"view"},{"type":"function","name":"getTokenIdByIpfsHash","inputs":[{"name":"ipfsHash","type":"string","internalType":"string"}],"outputs":[{"name":"","type":"uint256","internalType":"uint256"}],"stateMutability":"view"},{"type":"function","name":"hasAccess","inputs":[{"name":"tokenId","type":"uint256","internalType":"uint256"},{"name":"user","type":"address","internalType":"address"}],"outputs":[{"name":"","type":"bool","internalType":"bool"}],"stateMutability":"view"},{"type":"function","name":"ipfsHashToRentPrice","inputs":[{"name":"","type":"string","internalType":"string"}],"outputs":[{"name":"","type":"uint256","internalType":"uint256"}],"stateMutability":"view"},{"type":"function","name":"ipfsHashToTokenId","inputs":[{"name":"","type":"string","internalType":"string"}],"outputs":[{"name":"","type":"uint256","internalType":"uint256"}],"stateMutability":"view"},{"type":"function","name":"isApprovedForAll","inputs":[{"name":"owner","type":"address","internalType":"address"},{"name":"operator","type":"address","internalType":"address"}],"outputs":[{"name":"","type":"bool","internalType":"bool"}],"stateMutability":"view"},{"type":"function","name":"isSubscribed","inputs":[{"name":"subscriber","type":"address","internalType":"address"}],"outputs":[{"name":"","type":"bool","internalType":"bool"}],"stateMutability":"view"},{"type":"function","name":"listings","inputs":[{"name":"","type":"uint256","internalType":"uint256"}],"outputs":[{"name":"seller","type":"address","internalType":"address"},{"name":"price","type":"uint256","internalType":"uint256"}],"stateMutability":"view"},{"type":"function","name":"mintNft","inputs":[{"name":"_name","type":"string","internalType":"string"},{"name":"_description","type":"string","internalType":"string"},{"name":"_imageURI1","type":"string","internalType":"string"},{"name":"_imageURI2","type":"string","internalType":"string"},{"name":"_ipfsHash","type":"string","internalType":"string"},{"name":"_rent","type":"uint256","internalType":"uint256"},{"name":"_genre","type":"string","internalType":"string"},{"name":"_price","type":"uint256","internalType":"uint256"}],"outputs":[],"stateMutability":"nonpayable"},{"type":"function","name":"name","inputs":[],"outputs":[{"name":"","type":"string","internalType":"string"}],"stateMutability":"view"},{"type":"function","name":"owner","inputs":[],"outputs":[{"name":"","type":"address","internalType":"address"}],"stateMutability":"view"},{"type":"function","name":"ownerOf","inputs":[{"name":"tokenId","type":"uint256","internalType":"uint256"}],"outputs":[{"name":"","type":"address","internalType":"address"}],"stateMutability":"view"},{"type":"function","name":"rentNft","inputs":[{"name":"tokenId","type":"uint256","internalType":"uint256"}],"outputs":[],"stateMutability":"payable"},{"type":"function","name":"rentals","inputs":[{"name":"","type":"uint256","internalType":"uint256"}],"outputs":[{"name":"renter","type":"address","internalType":"address"},{"name":"expiry","type":"uint256","internalType":"uint256"}],"stateMutability":"view"},{"type":"function","name":"s_tokenCounter","inputs":[],"outputs":[{"name":"","type":"uint256","internalType":"uint256"}],"stateMutability":"view"},{"type":"function","name":"s_tokenIdForSale","inputs":[{"name":"","type":"uint256","internalType":"uint256"}],"outputs":[{"name":"","type":"bool","internalType":"bool"}],"stateMutability":"view"},{"type":"function","name":"s_tokenIdToPrice","inputs":[{"name":"","type":"uint256","internalType":"uint256"}],"outputs":[{"name":"","type":"uint256","internalType":"uint256"}],"stateMutability":"view"},{"type":"function","name":"s_tokenIdToState","inputs":[{"name":"","type":"uint256","internalType":"uint256"}],"outputs":[{"name":"","type":"string","internalType":"string"}],"stateMutability":"view"},{"type":"function","name":"s_tokenIdToTokenUri","inputs":[{"name":"","type":"uint256","internalType":"uint256"},{"name":"","type":"uint256","internalType":"uint256"}],"outputs":[{"name":"","type":"string","internalType":"string"}],"stateMutability":"view"},{"type":"function","name":"safeTransferFrom","inputs":[{"name":"from","type":"address","internalType":"address"},{"name":"to","type":"address","internalType":"address"},{"name":"tokenId","type":"uint256","internalType":"uint256"}],"outputs":[],"stateMutability":"nonpayable"},{"type":"function","name":"safeTransferFrom","inputs":[{"name":"from","type":"address","internalType":"address"},{"name":"to","type":"address","internalType":"address"},{"name":"tokenId","type":"uint256","internalType":"uint256"},{"name":"data","type":"bytes","internalType":"bytes"}],"outputs":[],"stateMutability":"nonpayable"},{"type":"function","name":"setApprovalForAll","inputs":[{"name":"operator","type":"address","internalType":"address"},{"name":"approved","type":"bool","internalType":"bool"}],"outputs":[],"stateMutability":"nonpayable"},{"type":"function","name":"subscribe","inputs":[],"outputs":[],"stateMutability":"payable"},{"type":"function","name":"subscribers","inputs":[{"name":"","type":"address","internalType":"address"}],"outputs":[{"name":"","type":"bool","internalType":"bool"}],"stateMutability":"view"},{"type":"function","name":"supportsInterface","inputs":[{"name":"interfaceId","type":"bytes4","internalType":"bytes4"}],"outputs":[{"name":"","type":"bool","internalType":"bool"}],"stateMutability":"view"},{"type":"function","name":"symbol","inputs":[],"outputs":[{"name":"","type":"string","internalType":"string"}],"stateMutability":"view"},{"type":"function","name":"tokenIdToRentPrice","inputs":[{"name":"","type":"uint256","internalType":"uint256"}],"outputs":[{"name":"","type":"uint256","internalType":"uint256"}],"stateMutability":"view"},{"type":"function","name":"tokenURI","inputs":[{"name":"tokenId","type":"uint256","internalType":"uint256"}],"outputs":[{"name":"","type":"string","internalType":"string"}],"stateMutability":"view"},{"type":"function","name":"transferFrom","inputs":[{"name":"from","type":"address","internalType":"address"},{"name":"to","type":"address","internalType":"address"},{"name":"tokenId","type":"uint256","internalType":"uint256"}],"outputs":[],"stateMutability":"nonpayable"},{"type":"function","name":"updatePrice","inputs":[{"name":"tokenId","type":"uint256","internalType":"uint256"},{"name":"newPrice","type":"uint256","internalType":"uint256"}],"outputs":[],"stateMutability":"nonpayable"},{"type":"function","name":"withdraw","inputs":[],"outputs":[],"stateMutability":"nonpayable"},{"type":"event","name":"Approval","inputs":[{"name":"owner","type":"address","indexed":true,"internalType":"address"},{"name":"approved","type":"address","indexed":true,"internalType":"address"},{"name":"tokenId","type":"uint256","indexed":true,"internalType":"uint256"}],"anonymous":false},{"type":"event","name":"ApprovalForAll","inputs":[{"name":"owner","type":"address","indexed":true,"internalType":"address"},{"name":"operator","type":"address","indexed":true,"internalType":"address"},{"name":"approved","type":"bool","indexed":false,"internalType":"bool"}],"anonymous":false},{"type":"event","name":"BoughtNFT","inputs":[{"name":"tokenId","type":"uint256","indexed":true,"internalType":"uint256"},{"name":"buyer","type":"address","indexed":true,"internalType":"address"},{"name":"price","type":"uint256","indexed":false,"internalType":"uint256"}],"anonymous":false},{"type":"event","name":"CreatedNFT","inputs":[{"name":"tokenId","type":"uint256","indexed":true,"internalType":"uint256"}],"anonymous":false},{"type":"event","name":"ListedNFT","inputs":[{"name":"tokenId","type":"uint256","indexed":true,"internalType":"uint256"},{"name":"price","type":"uint256","indexed":false,"internalType":"uint256"}],"anonymous":false},{"type":"event","name":"NFTDelisted","inputs":[{"name":"tokenId","type":"uint256","indexed":true,"internalType":"uint256"}],"anonymous":false},{"type":"event","name":"PriceUpdated","inputs":[{"name":"tokenId","type":"uint256","indexed":true,"internalType":"uint256"},{"name":"newPrice","type":"uint256","indexed":false,"internalType":"uint256"}],"anonymous":false},{"type":"event","name":"RentedNFT","inputs":[{"name":"tokenId","type":"uint256","indexed":true,"internalType":"uint256"},{"name":"renter","type":"address","indexed":true,"internalType":"address"}],"anonymous":false},{"type":"event","name":"Subscribed","inputs":[{"name":"subscriber","type":"address","indexed":true,"internalType":"address"}],"anonymous":false},{"type":"event","name":"Transfer","inputs":[{"name":"from","type":"address","indexed":true,"internalType":"address"},{"name":"to","type":"address","indexed":true,"internalType":"address"},{"name":"tokenId","type":"uint256","indexed":true,"internalType":"uint256"}],"anonymous":false},{"type":"error","name":"CannotBuyOwnNFT","inputs":[]},{"type":"error","name":"CantFlipIfNotOwner","inputs":[]},{"type":"error","name":"ERC721IncorrectOwner","inputs":[{"name":"sender","type":"address","internalType":"address"},{"name":"tokenId","type":"uint256","internalType":"uint256"},{"name":"owner","type":"address","internalType":"address"}]},{"type":"error","name":"ERC721InsufficientApproval","inputs":[{"name":"operator","type":"address","internalType":"address"},{"name":"tokenId","type":"uint256","internalType":"uint256"}]},{"type":"error","name":"ERC721InvalidApprover","inputs":[{"name":"approver","type":"address","internalType":"address"}]},{"type":"error","name":"ERC721InvalidOperator","inputs":[{"name":"operator","type":"address","internalType":"address"}]},{"type":"error","name":"ERC721InvalidOwner","inputs":[{"name":"owner","type":"address","internalType":"address"}]},{"type":"error","name":"ERC721InvalidReceiver","inputs":[{"name":"receiver","type":"address","internalType":"address"}]},{"type":"error","name":"ERC721InvalidSender","inputs":[{"name":"sender","type":"address","internalType":"address"}]},{"type":"error","name":"ERC721NonexistentToken","inputs":[{"name":"tokenId","type":"uint256","internalType":"uint256"}]},{"type":"error","name":"InsufficientFunds","inputs":[]},{"type":"error","name":"NFTNotForSale","inputs":[]}],"bytecode":{"object":"0x608060405234801561001057600080fd5b506040518060400160405280600a81526020016910dc99585d194813919560b21b8152506040518060400160405280600481526020016310d3919560e21b8152508160009081610060919061012b565b50600161006d828261012b565b5050601180546001600160a01b031916331790555060006010556101e9565b634e487b7160e01b600052604160045260246000fd5b600181811c908216806100b657607f821691505b6020821081036100d657634e487b7160e01b600052602260045260246000fd5b50919050565b601f82111561012657806000526020600020601f840160051c810160208510156101035750805b601f840160051c820191505b81811015610123576000815560010161010f565b50505b505050565b81516001600160401b038111156101445761014461008c565b6101588161015284546100a2565b846100dc565b6020601f82116001811461018c57600083156101745750848201515b600019600385901b1c1916600184901b178455610123565b600084815260208120601f198516915b828110156101bc578785015182556020948501946001909201910161019c565b50848210156101da5786840151600019600387901b60f8161c191681555b50505050600190811b01905550565b612962806101f86000396000f3fe6080604052600436106102465760003560e01c806373c6dee911610139578063b88d4fde116100b6578063c87b56dd1161007a578063c87b56dd1461075c578063cb917b9c1461077c578063ced141981461079c578063de74e57b146107bc578063e985e9c5146107fc578063f1f4c62e1461081c57600080fd5b8063b88d4fde1461068b578063b92ae87c146106ab578063bd7560ac146106e4578063bfc67d9a14610704578063c1a147a01461073c57600080fd5b80638f449a05116100fd5780638f449a05146105cf57806393d33c4c146105d757806395d89b41146105f7578063a22cb4651461060c578063af94a1d11461062c57600080fd5b806373c6dee91461052f57806376b0e0111461054257806382367b2d1461056257806382f2d70c146105825780638da5cb5b146105af57600080fd5b80632f1f8b5d116101c75780635745ae281161018b5780635745ae2814610472578063611f8222146104a25780636352211e146104da5780636e02007d146104fa57806370a082311461050f57600080fd5b80632f1f8b5d146103c05780633ccfd60b146103f05780633e38866d146104055780634160f04d1461043257806342842e0e1461045257600080fd5b80630cb7c4d61161020e5780630cb7c4d61461032057806311d1201d1461034d57806322d5266c1461036d57806323b872dd1461038d578063243adbdd146103ad57600080fd5b806301ffc9a71461024b57806306fdde0314610280578063081812fc146102a2578063095ea7b3146102da5780630b21a83b146102fc575b600080fd5b34801561025757600080fd5b5061026b610266366004611e8b565b61083c565b60405190151581526020015b60405180910390f35b34801561028c57600080fd5b5061029561088e565b6040516102779190611ef8565b3480156102ae57600080fd5b506102c26102bd366004611f0b565b610920565b6040516001600160a01b039091168152602001610277565b3480156102e657600080fd5b506102fa6102f5366004611f40565b610949565b005b34801561030857600080fd5b5061031260105481565b604051908152602001610277565b34801561032c57600080fd5b5061031261033b366004611f0b565b6000908152600f602052604090205490565b34801561035957600080fd5b50610312610368366004612018565b610958565b34801561037957600080fd5b506102fa61038836600461204c565b610980565b34801561039957600080fd5b506102fa6103a8366004612173565b610b21565b6102fa6103bb366004611f0b565b610bb1565b3480156103cc57600080fd5b5061026b6103db366004611f0b565b60086020526000908152604090205460ff1681565b3480156103fc57600080fd5b506102fa610ce5565b34801561041157600080fd5b50610312610420366004611f0b565b600f6020526000908152604090205481565b34801561043e57600080fd5b5061029561044d3660046121b0565b610d85565b34801561045e57600080fd5b506102fa61046d366004612173565b610e1f565b34801561047e57600080fd5b5061026b61048d36600461229f565b600b6020526000908152604090205460ff1681565b3480156104ae57600080fd5b506103126104bd366004612018565b8051602081830181018051600e8252928201919093012091525481565b3480156104e657600080fd5b506102c26104f5366004611f0b565b610e3f565b34801561050657600080fd5b50601054610312565b34801561051b57600080fd5b5061031261052a36600461229f565b610e4a565b6102fa61053d366004611f0b565b610e92565b34801561054e57600080fd5b5061029561055d366004611f0b565b610fb6565b34801561056e57600080fd5b506102fa61057d3660046122ba565b611050565b34801561058e57600080fd5b5061031261059d366004611f0b565b60076020526000908152604090205481565b3480156105bb57600080fd5b506011546102c2906001600160a01b031681565b6102fa61110d565b3480156105e357600080fd5b506102956105f2366004611f0b565b6111a5565b34801561060357600080fd5b50610295611247565b34801561061857600080fd5b506102fa6106273660046122dc565b611256565b34801561063857600080fd5b5061066c610647366004611f0b565b600c60205260009081526040902080546001909101546001600160a01b039091169082565b604080516001600160a01b039093168352602083019190915201610277565b34801561069757600080fd5b506102fa6106a6366004612318565b611261565b3480156106b757600080fd5b5061026b6106c636600461229f565b6001600160a01b03166000908152600b602052604090205460ff1690565b3480156106f057600080fd5b506102956106ff3660046122ba565b611278565b34801561071057600080fd5b5061031261071f366004612018565b8051602081830181018051600d8252928201919093012091525481565b34801561074857600080fd5b506102fa610757366004611f0b565b61129c565b34801561076857600080fd5b50610295610777366004611f0b565b6113a7565b34801561078857600080fd5b506102fa610797366004611f0b565b611441565b3480156107a857600080fd5b5061026b6107b7366004612393565b6114f8565b3480156107c857600080fd5b5061066c6107d7366004611f0b565b600660205260009081526040902080546001909101546001600160a01b039091169082565b34801561080857600080fd5b5061026b6108173660046123bf565b611557565b34801561082857600080fd5b50610312610837366004612018565b611585565b60006001600160e01b031982166380ac58cd60e01b148061086d57506001600160e01b03198216635b5e139f60e01b145b8061088857506301ffc9a760e01b6001600160e01b03198316145b92915050565b60606000805461089d906123e9565b80601f01602080910402602001604051908101604052809291908181526020018280546108c9906123e9565b80156109165780601f106108eb57610100808354040283529160200191610916565b820191906000526020600020905b8154815290600101906020018083116108f957829003601f168201915b5050505050905090565b600061092b82611597565b506000828152600460205260409020546001600160a01b0316610888565b6109548282336115d0565b5050565b6000600e8260405161096a919061243f565b9081526020016040518091039020549050919050565b61098e888888878787610d85565b6010546000908152600a602090815260408083208380529091529020906109b590826124a2565b506109c4888887878787610d85565b6010546000908152600a60209081526040808320600184529091529020906109ec90826124a2565b506010546000818152600a6020908152604080832083805282528083209383526009909152902090610a1e9082612563565b50601054610a2c33826115dd565b601054610a3a90600161264d565b6010556040518190600d90610a5090889061243f565b90815260200160405180910390208190555083600e86604051610a73919061243f565b908152604080519182900360209081018320939093556000848152600f909352822086905582917f72102923c3d44433bd725cb2c744a4c92a536ad249b665dec9853a16ed66552591a260008181526007602090815260408083208590556008825291829020805460ff19166001179055905183815282917fca466e56e7a1aa7cf15f1c534f9b24983cc069bc947fc3a8e8b1b423c3ad6b5b910160405180910390a2505050505050505050565b6001600160a01b038216610b5057604051633250574960e11b8152600060048201526024015b60405180910390fd5b6000610b5d8383336115f7565b9050836001600160a01b0316816001600160a01b031614610bab576040516364283d7b60e01b81526001600160a01b0380861660048301526024820184905282166044820152606401610b47565b50505050565b60008181526008602052604090205460ff16610be05760405163d135e8bd60e01b815260040160405180910390fd5b60008181526007602052604090205434811115610c105760405163356680b760e01b815260040160405180910390fd5b6000610c1b83610e3f565b9050336001600160a01b03821603610c4657604051631d547fe360e01b815260040160405180910390fd5b6000838152600860209081526040808320805460ff191690556007909152812055610c728133856116f0565b6040516001600160a01b038216903480156108fc02916000818181858888f19350505050158015610ca7573d6000803e3d6000fd5b50604051828152339084907fb6a905095cc0da6554868381c57c41a8a986dbee5b595c4921562f0bfc29c16b906020015b60405180910390a3505050565b6011546001600160a01b03163314610d495760405162461bcd60e51b815260206004820152602160248201527f4f6e6c7920746865206f776e65722063616e2077697468647261772066756e646044820152607360f81b6064820152608401610b47565b6011546040516001600160a01b03909116904780156108fc02916000818181858888f19350505050158015610d82573d6000803e3d6000fd5b50565b6060610dc160408051808201909152601d81527f646174613a6170706c69636174696f6e2f6a736f6e3b6261736536342c000000602082015290565b610df3888888888888604051602001610ddf96959493929190612660565b6040516020818303038152906040526117a0565b604051602001610e049291906127b9565b60405160208183030381529060405290509695505050505050565b610e3a83838360405180602001604052806000815250611261565b505050565b600061088882611597565b60006001600160a01b038216610e76576040516322718ad960e21b815260006004820152602401610b47565b506001600160a01b031660009081526003602052604090205490565b60008181526008602052604090205460ff16610ef05760405162461bcd60e51b815260206004820152601a60248201527f4e4654206e6f7420617661696c61626c6520666f722072656e740000000000006044820152606401610b47565b600081815260076020526040812054610f0b90600a906127e8565b905080341015610f2e5760405163356680b760e01b815260040160405180910390fd5b6040805180820190915233815260208101610f4b426103e861264d565b90526000838152600c60209081526040808320845181546001600160a01b0319166001600160a01b0390911617815593909101516001909301929092559051339184917f27007848968165429e723ea0be2983d3d281d1d25df491c0b1c774d06fc1ed499190a35050565b60096020526000908152604090208054610fcf906123e9565b80601f0160208091040260200160405190810160405280929190818152602001828054610ffb906123e9565b80156110485780601f1061101d57610100808354040283529160200191611048565b820191906000526020600020905b81548152906001019060200180831161102b57829003601f168201915b505050505081565b3361105a83610e3f565b6001600160a01b0316146110bc5760405162461bcd60e51b815260206004820152602360248201527f4f6e6c7920746865206f776e65722063616e207570646174652074686520707260448201526269636560e81b6064820152608401610b47565b600082815260076020526040908190208290555182907f945c1c4e99aa89f648fbfe3df471b916f719e16d960fcec0737d4d56bd696838906111019084815260200190565b60405180910390a25050565b34662386f26fc10000146111635760405162461bcd60e51b815260206004820152601e60248201527f537562736372697074696f6e2066656520697320302e303120657468657200006044820152606401610b47565b336000818152600b6020526040808220805460ff19166001179055517fa88fac53823b534c72d6958345adbe6801e072750d83b490d52ebbac51473a639190a2565b60008181526009602052604090208054606091906111c2906123e9565b80601f01602080910402602001604051908101604052809291908181526020018280546111ee906123e9565b801561123b5780601f106112105761010080835404028352916020019161123b565b820191906000526020600020905b81548152906001019060200180831161121e57829003601f168201915b50505050509050919050565b60606001805461089d906123e9565b6109543383836118ff565b61126c848484610b21565b610bab84848484611996565b600a60209081526000928352604080842090915290825290208054610fcf906123e9565b336112a682610920565b6001600160a01b0316141580156112ce5750336112c282610e3f565b6001600160a01b031614155b156112ec57604051631aa4306960e11b815260040160405180910390fd5b6000818152600960205260408082209051611307919061280a565b604080519182900382206000858152600a602090815283822082805290529182209093509091611337919061280a565b60405180910390209050808203611378576000838152600a60209081526040808320600184528252808320868452600990925290912090610bab9082612563565b6000838152600a602090815260408083208380528252808320868452600990925290912090610bab9082612563565b60606113b282611597565b5060006113ef60408051808201909152601d81527f646174613a6170706c69636174696f6e2f6a736f6e3b6261736536342c000000602082015290565b9050600081511161140f576040518060200160405280600081525061143a565b8061141984611abf565b60405160200161142a9291906127b9565b6040516020818303038152906040525b9392505050565b3361144b82610e3f565b6001600160a01b0316146114ab5760405162461bcd60e51b815260206004820152602160248201527f4f6e6c7920746865206f776e65722063616e2064656c69737420746865204e466044820152601560fa1b6064820152608401610b47565b6000818152600860209081526040808320805460ff1916905560079091528082208290555182917fc0c55a6edead4433d18cb1e287a0a20a2fa003a6f483bc9823d2e504d70d1c6791a250565b6001600160a01b0381166000908152600b602052604081205460ff168061143a57506000838152600c60205260409020546001600160a01b03838116911614801561143a575050506000908152600c6020526040902060010154421090565b6001600160a01b03918216600090815260056020908152604080832093909416825291909152205460ff1690565b6000600d8260405161096a919061243f565b6000818152600260205260408120546001600160a01b03168061088857604051637e27328960e01b815260048101849052602401610b47565b610e3a8383836001611b51565b610954828260405180602001604052806000815250611c57565b6000828152600260205260408120546001600160a01b039081169083161561162457611624818486611c6e565b6001600160a01b0381161561166257611641600085600080611b51565b6001600160a01b038116600090815260036020526040902080546000190190555b6001600160a01b03851615611691576001600160a01b0385166000908152600360205260409020805460010190555b60008481526002602052604080822080546001600160a01b0319166001600160a01b0389811691821790925591518793918516917fddf252ad1be2c89b69c2b068fc378daa952ba7f163c4a11628f55a4df523b3ef91a4949350505050565b6001600160a01b03821661171a57604051633250574960e11b815260006004820152602401610b47565b6000611728838360006115f7565b90506001600160a01b03811661175457604051637e27328960e01b815260048101839052602401610b47565b836001600160a01b0316816001600160a01b031614610bab576040516364283d7b60e01b81526001600160a01b0380861660048301526024820184905282166044820152606401610b47565b606081516000036117bf57505060408051602081019091526000815290565b60006040518060600160405280604081526020016128ed60409139905060006003845160026117ee919061264d565b6117f891906127e8565b61180390600461287b565b6001600160401b0381111561181a5761181a611f6a565b6040519080825280601f01601f191660200182016040528015611844576020820181803683370190505b50905060018201602082018586518701602081018051600082525b828410156118ba576003840193508351603f8160121c168701518653600186019550603f81600c1c168701518653600186019550603f8160061c168701518653600186019550603f811687015186535060018501945061185f565b90525050855160039006600181146118d957600281146118ec576118f4565b603d6001830353603d60028303536118f4565b603d60018303535b509195945050505050565b6001600160a01b03821661193157604051630b61174360e31b81526001600160a01b0383166004820152602401610b47565b6001600160a01b03838116600081815260056020908152604080832094871680845294825291829020805460ff191686151590811790915591519182527f17307eab39ab6107e8899845ad3d59bd9653f200f220920489ca2b5937696c319101610cd8565b6001600160a01b0383163b15610bab57604051630a85bd0160e11b81526001600160a01b0384169063150b7a02906119d8903390889087908790600401612892565b6020604051808303816000875af1925050508015611a13575060408051601f3d908101601f19168201909252611a10918101906128cf565b60015b611a7c573d808015611a41576040519150601f19603f3d011682016040523d82523d6000602084013e611a46565b606091505b508051600003611a7457604051633250574960e11b81526001600160a01b0385166004820152602401610b47565b805181602001fd5b6001600160e01b03198116630a85bd0160e11b14611ab857604051633250574960e11b81526001600160a01b0385166004820152602401610b47565b5050505050565b60606000611acc83611cd2565b60010190506000816001600160401b03811115611aeb57611aeb611f6a565b6040519080825280601f01601f191660200182016040528015611b15576020820181803683370190505b5090508181016020015b600019016f181899199a1a9b1b9c1cb0b131b232b360811b600a86061a8153600a8504945084611b1f57509392505050565b8080611b6557506001600160a01b03821615155b15611c27576000611b7584611597565b90506001600160a01b03831615801590611ba15750826001600160a01b0316816001600160a01b031614155b8015611bb45750611bb28184611557565b155b15611bdd5760405163a9fbf51f60e01b81526001600160a01b0384166004820152602401610b47565b8115611c255783856001600160a01b0316826001600160a01b03167f8c5be1e5ebec7d5bd14f71427d1e84f3dd0314c0f7b2291e5b200ac8c7c3b92560405160405180910390a45b505b5050600090815260046020526040902080546001600160a01b0319166001600160a01b0392909216919091179055565b611c618383611daa565b610e3a6000848484611996565b611c79838383611e0f565b610e3a576001600160a01b038316611ca757604051637e27328960e01b815260048101829052602401610b47565b60405163177e802f60e01b81526001600160a01b038316600482015260248101829052604401610b47565b60008072184f03e93ff9f4daa797ed6e38ed64bf6a1f0160401b8310611d115772184f03e93ff9f4daa797ed6e38ed64bf6a1f0160401b830492506040015b6d04ee2d6d415b85acef81000000008310611d3d576d04ee2d6d415b85acef8100000000830492506020015b662386f26fc100008310611d5b57662386f26fc10000830492506010015b6305f5e1008310611d73576305f5e100830492506008015b6127108310611d8757612710830492506004015b60648310611d99576064830492506002015b600a83106108885760010192915050565b6001600160a01b038216611dd457604051633250574960e11b815260006004820152602401610b47565b6000611de2838360006115f7565b90506001600160a01b03811615610e3a576040516339e3563760e11b815260006004820152602401610b47565b60006001600160a01b03831615801590611e6d5750826001600160a01b0316846001600160a01b03161480611e495750611e498484611557565b80611e6d57506000828152600460205260409020546001600160a01b038481169116145b949350505050565b6001600160e01b031981168114610d8257600080fd5b600060208284031215611e9d57600080fd5b813561143a81611e75565b60005b83811015611ec3578181015183820152602001611eab565b50506000910152565b60008151808452611ee4816020860160208601611ea8565b601f01601f19169290920160200192915050565b60208152600061143a6020830184611ecc565b600060208284031215611f1d57600080fd5b5035919050565b80356001600160a01b0381168114611f3b57600080fd5b919050565b60008060408385031215611f5357600080fd5b611f5c83611f24565b946020939093013593505050565b634e487b7160e01b600052604160045260246000fd5b6000806001600160401b03841115611f9a57611f9a611f6a565b50604051601f19601f85018116603f011681018181106001600160401b0382111715611fc857611fc8611f6a565b604052838152905080828401851015611fe057600080fd5b83836020830137600060208583010152509392505050565b600082601f83011261200957600080fd5b61143a83833560208501611f80565b60006020828403121561202a57600080fd5b81356001600160401b0381111561204057600080fd5b611e6d84828501611ff8565b600080600080600080600080610100898b03121561206957600080fd5b88356001600160401b0381111561207f57600080fd5b61208b8b828c01611ff8565b98505060208901356001600160401b038111156120a757600080fd5b6120b38b828c01611ff8565b97505060408901356001600160401b038111156120cf57600080fd5b6120db8b828c01611ff8565b96505060608901356001600160401b038111156120f757600080fd5b6121038b828c01611ff8565b95505060808901356001600160401b0381111561211f57600080fd5b61212b8b828c01611ff8565b94505060a0890135925060c08901356001600160401b0381111561214e57600080fd5b61215a8b828c01611ff8565b989b979a50959894979396929550929360e00135925050565b60008060006060848603121561218857600080fd5b61219184611f24565b925061219f60208501611f24565b929592945050506040919091013590565b60008060008060008060c087890312156121c957600080fd5b86356001600160401b038111156121df57600080fd5b6121eb89828a01611ff8565b96505060208701356001600160401b0381111561220757600080fd5b61221389828a01611ff8565b95505060408701356001600160401b0381111561222f57600080fd5b61223b89828a01611ff8565b94505060608701356001600160401b0381111561225757600080fd5b61226389828a01611ff8565b9350506080870135915060a08701356001600160401b0381111561228657600080fd5b61229289828a01611ff8565b9150509295509295509295565b6000602082840312156122b157600080fd5b61143a82611f24565b600080604083850312156122cd57600080fd5b50508035926020909101359150565b600080604083850312156122ef57600080fd5b6122f883611f24565b91506020830135801515811461230d57600080fd5b809150509250929050565b6000806000806080858703121561232e57600080fd5b61233785611f24565b935061234560208601611f24565b92506040850135915060608501356001600160401b0381111561236757600080fd5b8501601f8101871361237857600080fd5b61238787823560208401611f80565b91505092959194509250565b600080604083850312156123a657600080fd5b823591506123b660208401611f24565b90509250929050565b600080604083850312156123d257600080fd5b6123db83611f24565b91506123b660208401611f24565b600181811c908216806123fd57607f821691505b60208210810361241d57634e487b7160e01b600052602260045260246000fd5b50919050565b60008151612435818560208601611ea8565b9290920192915050565b60008251612451818460208701611ea8565b9190910192915050565b601f821115610e3a57806000526020600020601f840160051c810160208510156124825750805b601f840160051c820191505b81811015611ab8576000815560010161248e565b81516001600160401b038111156124bb576124bb611f6a565b6124cf816124c984546123e9565b8461245b565b6020601f82116001811461250657600083156124eb5750848201515b600184901b600019600386901b1c198216175b855550611ab8565b600084815260208120601f198516915b828110156125365787850151825560209485019460019092019101612516565b50848210156125545786840151600019600387901b60f8161c191681555b50505050600190811b01905550565b81810361256e575050565b61257882546123e9565b6001600160401b0381111561258f5761258f611f6a565b61259d816124c984546123e9565b6000601f8211600181146125cf57600083156124eb575081850154600184901b600019600386901b1c198216176124fe565b600085815260209020601f19841690600086815260209020845b8381101561260957828601548255600195860195909101906020016125e9565b50858310156126275781850154600019600388901b60f8161c191681555b5050505050600190811b01905550565b634e487b7160e01b600052601160045260246000fd5b8082018082111561088857610888612637565b683d913730b6b2911d1160b91b81528651600090612685816009850160208c01611ea8565b71111610113232b9b1b934b83a34b7b7111d1160711b60099184019182015287516126b781601b840160208c01611ea8565b6009818301019150506e1116101134b6b0b3b2aaa924911d1160891b601282015286516126eb816021840160208b01611ea8565b6012818301019150506e1116101134b83339a430b9b4111d1160891b600f82015261273361271c601e830188612423565b6a111610113932b73a111d1160a91b8152600b0190565b8581526b1116101133b2b73932911d1160a11b602082015290506127ac61275d602c830186612423565b7f222c202261747472696275746573223a5b7b2274726169745f74797065223a2281527f6d6f6f64696e657373222c202276616c7565223a3130307d5d7d0000000000006020820152603a0190565b9998505050505050505050565b600083516127cb818460208801611ea8565b8351908301906127df818360208801611ea8565b01949350505050565b60008261280557634e487b7160e01b600052601260045260246000fd5b500490565b6000808354612818816123e9565b60018216801561282f5760018114612844576118f4565b60ff19831686528115158202860193506118f4565b86600052602060002060005b8381101561286c57815488820152600190910190602001612850565b50505093909301949350505050565b808202811582820484141761088857610888612637565b6001600160a01b03858116825284166020820152604081018390526080606082018190526000906128c590830184611ecc565b9695505050505050565b6000602082840312156128e157600080fd5b815161143a81611e7556fe4142434445464748494a4b4c4d4e4f505152535455565758595a6162636465666768696a6b6c6d6e6f707172737475767778797a303132333435363738392b2fa2646970667358221220ab675a24759d6a1a0e87662da4d7cb866959add7c4882b009eb469b0506d89a264736f6c634300081a0033","linkReferences":{}},"methodIdentifiers":{"approve(address,uint256)":"095ea7b3","balanceOf(address)":"70a08231","buyNft(uint256)":"243adbdd","convertToTokenUri(string,string,string,string,uint256,string)":"4160f04d","delistNFT(uint256)":"cb917b9c","flipMood(uint256)":"c1a147a0","getApproved(uint256)":"081812fc","getCurrentTokenUri(uint256)":"93d33c4c","getRentByIpfsHash(string)":"11d1201d","getRentByTokenId(uint256)":"0cb7c4d6","getTokenCounter()":"6e02007d","getTokenIdByIpfsHash(string)":"f1f4c62e","hasAccess(uint256,address)":"ced14198","ipfsHashToRentPrice(string)":"611f8222","ipfsHashToTokenId(string)":"bfc67d9a","isApprovedForAll(address,address)":"e985e9c5","isSubscribed(address)":"b92ae87c","listings(uint256)":"de74e57b","mintNft(string,string,string,string,string,uint256,string,uint256)":"22d5266c","name()":"06fdde03","owner()":"8da5cb5b","ownerOf(uint256)":"6352211e","rentNft(uint256)":"73c6dee9","rentals(uint256)":"af94a1d1","s_tokenCounter()":"0b21a83b","s_tokenIdForSale(uint256)":"2f1f8b5d","s_tokenIdToPrice(uint256)":"82f2d70c","s_tokenIdToState(uint256)":"76b0e011","s_tokenIdToTokenUri(uint256,uint256)":"bd7560ac","safeTransferFrom(address,address,uint256)":"42842e0e","safeTransferFrom(address,address,uint256,bytes)":"b88d4fde","setApprovalForAll(address,bool)":"a22cb465","subscribe()":"8f449a05","subscribers(address)":"5745ae28","supportsInterface(bytes4)":"01ffc9a7","symbol()":"95d89b41","tokenIdToRentPrice(uint256)":"3e38866d","tokenURI(uint256)":"c87b56dd","transferFrom(address,address,uint256)":"23b872dd","updatePrice(uint256,uint256)":"82367b2d","withdraw()":"3ccfd60b"},"id":13}